{
  "_format": "hh-sol-artifact-1",
  "contractName": "MessageBoard",
  "sourceName": "contracts/MessageBoard.sol",
  "abi": [
    {
      "anonymous": false,
      "inputs": [
        {
          "indexed": true,
          "internalType": "address",
          "name": "sender",
          "type": "address"
        },
        {
          "indexed": false,
          "internalType": "uint256",
          "name": "messageIndex",
          "type": "uint256"
        },
        {
          "indexed": false,
          "internalType": "string",
          "name": "message",
          "type": "string"
        }
      ],
      "name": "NewMessage",
      "type": "event"
    },
    {
      "inputs": [
        {
          "internalType": "uint256",
          "name": "numMessages",
          "type": "uint256"
        }
      ],
      "name": "getLastMessages",
      "outputs": [
        {
          "components": [
            {
              "internalType": "address",
              "name": "sender",
              "type": "address"
            },
            {
              "internalType": "string",
              "name": "text",
              "type": "string"
            }
          ],
          "internalType": "struct MessageBoard.Message[]",
          "name": "",
          "type": "tuple[]"
        }
      ],
      "stateMutability": "view",
      "type": "function"
    },
    {
      "inputs": [],
      "name": "messageCount",
      "outputs": [
        {
          "internalType": "uint256",
          "name": "",
          "type": "uint256"
        }
      ],
      "stateMutability": "view",
      "type": "function"
    },
    {
      "inputs": [
        {
          "internalType": "uint256",
          "name": "",
          "type": "uint256"
        }
      ],
      "name": "messages",
      "outputs": [
        {
          "internalType": "address",
          "name": "sender",
          "type": "address"
        },
        {
          "internalType": "string",
          "name": "text",
          "type": "string"
        }
      ],
      "stateMutability": "view",
      "type": "function"
    },
    {
      "inputs": [
        {
          "internalType": "string",
          "name": "message",
          "type": "string"
        }
      ],
      "name": "writeMessage",
      "outputs": [],
      "stateMutability": "nonpayable",
      "type": "function"
    }
  ],
  "bytecode": "0x608060405234801561001057600080fd5b50610d7f806100206000396000f3fe608060405234801561001057600080fd5b506004361061004c5760003560e01c80630d80fefd146100515780633dbcc8d114610082578063b588bfad146100a0578063d26ffa3b146100bc575b600080fd5b61006b60048036038101906100669190610656565b6100ec565b60405161007992919061075d565b60405180910390f35b61008a6101b8565b604051610097919061079c565b60405180910390f35b6100ba60048036038101906100b591906108ec565b6101be565b005b6100d660048036038101906100d19190610656565b610320565b6040516100e39190610a8d565b60405180910390f35b60006020528060005260406000206000915090508060000160009054906101000a900473ffffffffffffffffffffffffffffffffffffffff169080600101805461013590610ade565b80601f016020809104026020016040519081016040528092919081815260200182805461016190610ade565b80156101ae5780601f10610183576101008083540402835291602001916101ae565b820191906000526020600020905b81548152906001019060200180831161019157829003601f168201915b5050505050905082565b60015481565b6000815111610202576040517f08c379a00000000000000000000000000000000000000000000000000000000081526004016101f990610b5c565b60405180910390fd5b60405180604001604052803373ffffffffffffffffffffffffffffffffffffffff16815260200182815250600080600154815260200190815260200160002060008201518160000160006101000a81548173ffffffffffffffffffffffffffffffffffffffff021916908373ffffffffffffffffffffffffffffffffffffffff16021790555060208201518160010190805190602001906102a4929190610539565b50905050600160008154809291906102bb90610bab565b91905055503373ffffffffffffffffffffffffffffffffffffffff167f0ff94fec3112de81726d79117e091c7c9d47da8a38c73e8cec7ee350a61898a6600180546103069190610bf4565b83604051610315929190610c28565b60405180910390a250565b6060600154821115610367576040517f08c379a000000000000000000000000000000000000000000000000000000000815260040161035e90610ca4565b60405180910390fd5b60008260015411610379576000610388565b826001546103879190610bf4565b5b905060008367ffffffffffffffff8111156103a6576103a56107c1565b5b6040519080825280602002602001820160405280156103df57816020015b6103cc6105bf565b8152602001906001900390816103c45790505b50905060005b8481101561052e5760008082856103fc9190610cc4565b81526020019081526020016000206040518060400160405290816000820160009054906101000a900473ffffffffffffffffffffffffffffffffffffffff1673ffffffffffffffffffffffffffffffffffffffff1673ffffffffffffffffffffffffffffffffffffffff16815260200160018201805461047b90610ade565b80601f01602080910402602001604051908101604052809291908181526020018280546104a790610ade565b80156104f45780601f106104c9576101008083540402835291602001916104f4565b820191906000526020600020905b8154815290600101906020018083116104d757829003601f168201915b5050505050815250508282815181106105105761050f610d1a565b5b6020026020010181905250808061052690610bab565b9150506103e5565b508092505050919050565b82805461054590610ade565b90600052602060002090601f01602090048101928261056757600085556105ae565b82601f1061058057805160ff19168380011785556105ae565b828001600101855582156105ae579182015b828111156105ad578251825591602001919060010190610592565b5b5090506105bb91906105ef565b5090565b6040518060400160405280600073ffffffffffffffffffffffffffffffffffffffff168152602001606081525090565b5b808211156106085760008160009055506001016105f0565b5090565b6000604051905090565b600080fd5b600080fd5b6000819050919050565b61063381610620565b811461063e57600080fd5b50565b6000813590506106508161062a565b92915050565b60006020828403121561066c5761066b610616565b5b600061067a84828501610641565b91505092915050565b600073ffffffffffffffffffffffffffffffffffffffff82169050919050565b60006106ae82610683565b9050919050565b6106be816106a3565b82525050565b600081519050919050565b600082825260208201905092915050565b60005b838110156106fe5780820151818401526020810190506106e3565b8381111561070d576000848401525b50505050565b6000601f19601f8301169050919050565b600061072f826106c4565b61073981856106cf565b93506107498185602086016106e0565b61075281610713565b840191505092915050565b600060408201905061077260008301856106b5565b81810360208301526107848184610724565b90509392505050565b61079681610620565b82525050565b60006020820190506107b1600083018461078d565b92915050565b600080fd5b600080fd5b7f4e487b7100000000000000000000000000000000000000000000000000000000600052604160045260246000fd5b6107f982610713565b810181811067ffffffffffffffff82111715610818576108176107c1565b5b80604052505050565b600061082b61060c565b905061083782826107f0565b919050565b600067ffffffffffffffff821115610857576108566107c1565b5b61086082610713565b9050602081019050919050565b82818337600083830152505050565b600061088f61088a8461083c565b610821565b9050828152602081018484840111156108ab576108aa6107bc565b5b6108b684828561086d565b509392505050565b600082601f8301126108d3576108d26107b7565b5b81356108e384826020860161087c565b91505092915050565b60006020828403121561090257610901610616565b5b600082013567ffffffffffffffff8111156109205761091f61061b565b5b61092c848285016108be565b91505092915050565b600081519050919050565b600082825260208201905092915050565b6000819050602082019050919050565b61096a816106a3565b82525050565b600082825260208201905092915050565b600061098c826106c4565b6109968185610970565b93506109a68185602086016106e0565b6109af81610713565b840191505092915050565b60006040830160008301516109d26000860182610961565b50602083015184820360208601526109ea8282610981565b9150508091505092915050565b6000610a0383836109ba565b905092915050565b6000602082019050919050565b6000610a2382610935565b610a2d8185610940565b935083602082028501610a3f85610951565b8060005b85811015610a7b5784840389528151610a5c85826109f7565b9450610a6783610a0b565b925060208a01995050600181019050610a43565b50829750879550505050505092915050565b60006020820190508181036000830152610aa78184610a18565b905092915050565b7f4e487b7100000000000000000000000000000000000000000000000000000000600052602260045260246000fd5b60006002820490506001821680610af657607f821691505b60208210811415610b0a57610b09610aaf565b5b50919050565b7f43616e6e6f7420777269746520656d707479206d657373616765000000000000600082015250565b6000610b46601a836106cf565b9150610b5182610b10565b602082019050919050565b60006020820190508181036000830152610b7581610b39565b9050919050565b7f4e487b7100000000000000000000000000000000000000000000000000000000600052601160045260246000fd5b6000610bb682610620565b91507fffffffffffffffffffffffffffffffffffffffffffffffffffffffffffffffff821415610be957610be8610b7c565b5b600182019050919050565b6000610bff82610620565b9150610c0a83610620565b925082821015610c1d57610c1c610b7c565b5b828203905092915050565b6000604082019050610c3d600083018561078d565b8181036020830152610c4f8184610724565b90509392505050565b7f4e6f7420656e6f756768206d6573736167657300000000000000000000000000600082015250565b6000610c8e6013836106cf565b9150610c9982610c58565b602082019050919050565b60006020820190508181036000830152610cbd81610c81565b9050919050565b6000610ccf82610620565b9150610cda83610620565b9250827fffffffffffffffffffffffffffffffffffffffffffffffffffffffffffffffff03821115610d0f57610d0e610b7c565b5b828201905092915050565b7f4e487b7100000000000000000000000000000000000000000000000000000000600052603260045260246000fdfea2646970667358221220935038a17310fe522809e3238bfaa63adde418051a724ca3508f12512402224064736f6c63430008090033",
  "linkReferences": {},
  "deployedLinkReferences": {}
}